{
  "_format": "hh-sol-artifact-1",
  "contractName": "ClimateCoin",
  "sourceName": "contracts/ClimateCoin.sol",
  "abi": [
    {
      "inputs": [
        {
          "internalType": "uint256",
          "name": "initialSupply",
          "type": "uint256"
        },
        {
          "internalType": "address",
          "name": "trustedForwarder",
          "type": "address"
        }
      ],
      "stateMutability": "nonpayable",
      "type": "constructor"
    },
    {
      "anonymous": false,
      "inputs": [
        {
          "indexed": true,
          "internalType": "address",
          "name": "owner",
          "type": "address"
        },
        {
          "indexed": true,
          "internalType": "address",
          "name": "spender",
          "type": "address"
        },
        {
          "indexed": false,
          "internalType": "uint256",
          "name": "value",
          "type": "uint256"
        }
      ],
      "name": "Approval",
      "type": "event"
    },
    {
      "anonymous": false,
      "inputs": [
        {
          "indexed": true,
          "internalType": "address",
          "name": "farmer",
          "type": "address"
        }
      ],
      "name": "ClaimApproved",
      "type": "event"
    },
    {
      "anonymous": false,
      "inputs": [
        {
          "indexed": false,
          "internalType": "address",
          "name": "sender",
          "type": "address"
        }
      ],
      "name": "NewAdminAdded",
      "type": "event"
    },
    {
      "anonymous": false,
      "inputs": [
        {
          "indexed": true,
          "internalType": "address",
          "name": "claimant",
          "type": "address"
        }
      ],
      "name": "NewClaim",
      "type": "event"
    },
    {
      "anonymous": false,
      "inputs": [
        {
          "indexed": false,
          "internalType": "address",
          "name": "newFarmer",
          "type": "address"
        }
      ],
      "name": "NewFarmer",
      "type": "event"
    },
    {
      "anonymous": false,
      "inputs": [
        {
          "indexed": true,
          "internalType": "address",
          "name": "rewardee",
          "type": "address"
        }
      ],
      "name": "Rewarded",
      "type": "event"
    },
    {
      "anonymous": false,
      "inputs": [
        {
          "indexed": true,
          "internalType": "address",
          "name": "from",
          "type": "address"
        },
        {
          "indexed": true,
          "internalType": "address",
          "name": "to",
          "type": "address"
        },
        {
          "indexed": false,
          "internalType": "uint256",
          "name": "value",
          "type": "uint256"
        }
      ],
      "name": "Transfer",
      "type": "event"
    },
    {
      "inputs": [
        {
          "internalType": "address",
          "name": "",
          "type": "address"
        }
      ],
      "name": "acreage",
      "outputs": [
        {
          "internalType": "uint256",
          "name": "",
          "type": "uint256"
        }
      ],
      "stateMutability": "view",
      "type": "function"
    },
    {
      "inputs": [
        {
          "internalType": "address[]",
          "name": "_admin",
          "type": "address[]"
        }
      ],
      "name": "addAdmin",
      "outputs": [],
      "stateMutability": "nonpayable",
      "type": "function"
    },
    {
      "inputs": [],
      "name": "addClaim",
      "outputs": [],
      "stateMutability": "nonpayable",
      "type": "function"
    },
    {
      "inputs": [
        {
          "internalType": "address",
          "name": "owner",
          "type": "address"
        },
        {
          "internalType": "address",
          "name": "spender",
          "type": "address"
        }
      ],
      "name": "allowance",
      "outputs": [
        {
          "internalType": "uint256",
          "name": "",
          "type": "uint256"
        }
      ],
      "stateMutability": "view",
      "type": "function"
    },
    {
      "inputs": [
        {
          "internalType": "address",
          "name": "spender",
          "type": "address"
        },
        {
          "internalType": "uint256",
          "name": "amount",
          "type": "uint256"
        }
      ],
      "name": "approve",
      "outputs": [
        {
          "internalType": "bool",
          "name": "",
          "type": "bool"
        }
      ],
      "stateMutability": "nonpayable",
      "type": "function"
    },
    {
      "inputs": [
        {
          "internalType": "address",
          "name": "_farmer",
          "type": "address"
        }
      ],
      "name": "approveClaim",
      "outputs": [],
      "stateMutability": "nonpayable",
      "type": "function"
    },
    {
      "inputs": [
        {
          "internalType": "address",
          "name": "account",
          "type": "address"
        }
      ],
      "name": "balanceOf",
      "outputs": [
        {
          "internalType": "uint256",
          "name": "",
          "type": "uint256"
        }
      ],
      "stateMutability": "view",
      "type": "function"
    },
    {
      "inputs": [
        {
          "internalType": "address",
          "name": "",
          "type": "address"
        }
      ],
      "name": "claims",
      "outputs": [
        {
          "internalType": "bool",
          "name": "",
          "type": "bool"
        }
      ],
      "stateMutability": "view",
      "type": "function"
    },
    {
      "inputs": [],
      "name": "decimals",
      "outputs": [
        {
          "internalType": "uint8",
          "name": "",
          "type": "uint8"
        }
      ],
      "stateMutability": "view",
      "type": "function"
    },
    {
      "inputs": [
        {
          "internalType": "address",
          "name": "spender",
          "type": "address"
        },
        {
          "internalType": "uint256",
          "name": "subtractedValue",
          "type": "uint256"
        }
      ],
      "name": "decreaseAllowance",
      "outputs": [
        {
          "internalType": "bool",
          "name": "",
          "type": "bool"
        }
      ],
      "stateMutability": "nonpayable",
      "type": "function"
    },
    {
      "inputs": [
        {
          "internalType": "address",
          "name": "spender",
          "type": "address"
        },
        {
          "internalType": "uint256",
          "name": "addedValue",
          "type": "uint256"
        }
      ],
      "name": "increaseAllowance",
      "outputs": [
        {
          "internalType": "bool",
          "name": "",
          "type": "bool"
        }
      ],
      "stateMutability": "nonpayable",
      "type": "function"
    },
    {
      "inputs": [
        {
          "internalType": "address",
          "name": "",
          "type": "address"
        }
      ],
      "name": "isAFarmer",
      "outputs": [
        {
          "internalType": "bool",
          "name": "",
          "type": "bool"
        }
      ],
      "stateMutability": "view",
      "type": "function"
    },
    {
      "inputs": [
        {
          "internalType": "address",
          "name": "",
          "type": "address"
        }
      ],
      "name": "isAnAdmin",
      "outputs": [
        {
          "internalType": "bool",
          "name": "",
          "type": "bool"
        }
      ],
      "stateMutability": "view",
      "type": "function"
    },
    {
      "inputs": [
        {
          "internalType": "address",
          "name": "forwarder",
          "type": "address"
        }
      ],
      "name": "isTrustedForwarder",
      "outputs": [
        {
          "internalType": "bool",
          "name": "",
          "type": "bool"
        }
      ],
      "stateMutability": "view",
      "type": "function"
    },
    {
      "inputs": [],
      "name": "name",
      "outputs": [
        {
          "internalType": "string",
          "name": "",
          "type": "string"
        }
      ],
      "stateMutability": "view",
      "type": "function"
    },
    {
      "inputs": [],
      "name": "processRewards",
      "outputs": [],
      "stateMutability": "nonpayable",
      "type": "function"
    },
    {
      "inputs": [
        {
          "internalType": "address[]",
          "name": "_farmer",
          "type": "address[]"
        },
        {
          "internalType": "uint256[]",
          "name": "_acreage",
          "type": "uint256[]"
        }
      ],
      "name": "registerFarmer",
      "outputs": [],
      "stateMutability": "nonpayable",
      "type": "function"
    },
    {
      "inputs": [
        {
          "internalType": "address",
          "name": "",
          "type": "address"
        }
      ],
      "name": "rewards",
      "outputs": [
        {
          "internalType": "uint256",
          "name": "",
          "type": "uint256"
        }
      ],
      "stateMutability": "view",
      "type": "function"
    },
    {
      "inputs": [],
      "name": "symbol",
      "outputs": [
        {
          "internalType": "string",
          "name": "",
          "type": "string"
        }
      ],
      "stateMutability": "view",
      "type": "function"
    },
    {
      "inputs": [],
      "name": "totalSupply",
      "outputs": [
        {
          "internalType": "uint256",
          "name": "",
          "type": "uint256"
        }
      ],
      "stateMutability": "view",
      "type": "function"
    },
    {
      "inputs": [
        {
          "internalType": "address",
          "name": "to",
          "type": "address"
        },
        {
          "internalType": "uint256",
          "name": "amount",
          "type": "uint256"
        }
      ],
      "name": "transfer",
      "outputs": [
        {
          "internalType": "bool",
          "name": "",
          "type": "bool"
        }
      ],
      "stateMutability": "nonpayable",
      "type": "function"
    },
    {
      "inputs": [
        {
          "internalType": "address",
          "name": "from",
          "type": "address"
        },
        {
          "internalType": "address",
          "name": "to",
          "type": "address"
        },
        {
          "internalType": "uint256",
          "name": "amount",
          "type": "uint256"
        }
      ],
      "name": "transferFrom",
      "outputs": [
        {
          "internalType": "bool",
          "name": "",
          "type": "bool"
        }
      ],
      "stateMutability": "nonpayable",
      "type": "function"
    }
  ],
  "bytecode": "0x60a06040523480156200001157600080fd5b5060405162002dba38038062002dba83398181016040528101906200003791906200053a565b806040518060400160405280600c81526020017f436c696d617465546f6b656e00000000000000000000000000000000000000008152506040518060400160405280600281526020017f43540000000000000000000000000000000000000000000000000000000000008152508160039080519060200190620000bc929190620003e5565b508060049080519060200190620000d5929190620003e5565b5050508073ffffffffffffffffffffffffffffffffffffffff1660808173ffffffffffffffffffffffffffffffffffffffff1681525050506200014d62000121620001bc60201b60201c565b62000131620001d860201b60201c565b60ff1684620001419190620005b0565b620001e160201b60201c565b60016005600062000163620001bc60201b60201c565b73ffffffffffffffffffffffffffffffffffffffff1673ffffffffffffffffffffffffffffffffffffffff16815260200190815260200160002060006101000a81548160ff021916908315150217905550505062000784565b6000620001d36200034f60201b6200114f1760201c565b905090565b60006012905090565b600073ffffffffffffffffffffffffffffffffffffffff168273ffffffffffffffffffffffffffffffffffffffff16141562000254576040517f08c379a00000000000000000000000000000000000000000000000000000000081526004016200024b9062000672565b60405180910390fd5b62000268600083836200039960201b60201c565b80600260008282546200027c919062000694565b92505081905550806000808473ffffffffffffffffffffffffffffffffffffffff1673ffffffffffffffffffffffffffffffffffffffff168152602001908152602001600020600082825401925050819055508173ffffffffffffffffffffffffffffffffffffffff16600073ffffffffffffffffffffffffffffffffffffffff167fddf252ad1be2c89b69c2b068fc378daa952ba7f163c4a11628f55a4df523b3ef836040516200032f919062000702565b60405180910390a36200034b600083836200039e60201b60201c565b5050565b60006200036233620003a360201b60201c565b156200037857601436033560601c905062000395565b6200038d620003dd60201b620011811760201c565b905062000396565b5b90565b505050565b505050565b600060805173ffffffffffffffffffffffffffffffffffffffff168273ffffffffffffffffffffffffffffffffffffffff16149050919050565b600033905090565b828054620003f3906200074e565b90600052602060002090601f01602090048101928262000417576000855562000463565b82601f106200043257805160ff191683800117855562000463565b8280016001018555821562000463579182015b828111156200046257825182559160200191906001019062000445565b5b50905062000472919062000476565b5090565b5b808211156200049157600081600090555060010162000477565b5090565b600080fd5b6000819050919050565b620004af816200049a565b8114620004bb57600080fd5b50565b600081519050620004cf81620004a4565b92915050565b600073ffffffffffffffffffffffffffffffffffffffff82169050919050565b60006200050282620004d5565b9050919050565b6200051481620004f5565b81146200052057600080fd5b50565b600081519050620005348162000509565b92915050565b6000806040838503121562000554576200055362000495565b5b60006200056485828601620004be565b9250506020620005778582860162000523565b9150509250929050565b7f4e487b7100000000000000000000000000000000000000000000000000000000600052601160045260246000fd5b6000620005bd826200049a565b9150620005ca836200049a565b9250817fffffffffffffffffffffffffffffffffffffffffffffffffffffffffffffffff048311821515161562000606576200060562000581565b5b828202905092915050565b600082825260208201905092915050565b7f45524332303a206d696e7420746f20746865207a65726f206164647265737300600082015250565b60006200065a601f8362000611565b9150620006678262000622565b602082019050919050565b600060208201905081810360008301526200068d816200064b565b9050919050565b6000620006a1826200049a565b9150620006ae836200049a565b9250827fffffffffffffffffffffffffffffffffffffffffffffffffffffffffffffffff03821115620006e657620006e562000581565b5b828201905092915050565b620006fc816200049a565b82525050565b6000602082019050620007196000830184620006f1565b92915050565b7f4e487b7100000000000000000000000000000000000000000000000000000000600052602260045260246000fd5b600060028204905060018216806200076757607f821691505b602082108114156200077e576200077d6200071f565b5b50919050565b60805161261a620007a060003960006107a6015261261a6000f3fe608060405234801561001057600080fd5b50600436106101425760003560e01c806370a08231116100b8578063b1e3b8d11161007c578063b1e3b8d1146103c5578063c6788bdd146103e1578063dbb773d914610411578063dd62ed3e1461042d578063ecb9adfe1461045d578063f9fc0d071461048d57610142565b806370a082311461030d578063831136641461033d57806395d89b4114610347578063a457c2d714610365578063a9059cbb1461039557610142565b8063313ce5671161010a578063313ce5671461021357806339509351146102315780633d0950a81461026157806347b6ed5b1461027d57806351bf6fb3146102ad578063572b6c05146102dd57610142565b806306fdde03146101475780630700037d14610165578063095ea7b31461019557806318160ddd146101c557806323b872dd146101e3575b600080fd5b61014f610497565b60405161015c9190611861565b60405180910390f35b61017f600480360381019061017a91906118f5565b610529565b60405161018c919061193b565b60405180910390f35b6101af60048036038101906101aa9190611982565b610541565b6040516101bc91906119dd565b60405180910390f35b6101cd610564565b6040516101da919061193b565b60405180910390f35b6101fd60048036038101906101f891906119f8565b61056e565b60405161020a91906119dd565b60405180910390f35b61021b61059d565b6040516102289190611a67565b60405180910390f35b61024b60048036038101906102469190611982565b6105a6565b60405161025891906119dd565b60405180910390f35b61027b60048036038101906102769190611bca565b6105dd565b005b610297600480360381019061029291906118f5565b610762565b6040516102a491906119dd565b60405180910390f35b6102c760048036038101906102c291906118f5565b610782565b6040516102d491906119dd565b60405180910390f35b6102f760048036038101906102f291906118f5565b6107a2565b60405161030491906119dd565b60405180910390f35b610327600480360381019061032291906118f5565b6107fa565b604051610334919061193b565b60405180910390f35b610345610842565b005b61034f610980565b60405161035c9190611861565b60405180910390f35b61037f600480360381019061037a9190611982565b610a12565b60405161038c91906119dd565b60405180910390f35b6103af60048036038101906103aa9190611982565b610a89565b6040516103bc91906119dd565b60405180910390f35b6103df60048036038101906103da9190611cd6565b610aac565b005b6103fb60048036038101906103f691906118f5565b610caa565b60405161040891906119dd565b60405180910390f35b61042b600480360381019061042691906118f5565b610cca565b005b61044760048036038101906104429190611d4e565b610eb2565b604051610454919061193b565b60405180910390f35b610477600480360381019061047291906118f5565b610f39565b604051610484919061193b565b60405180910390f35b610495610f51565b005b6060600380546104a690611dbd565b80601f01602080910402602001604051908101604052809291908181526020018280546104d290611dbd565b801561051f5780601f106104f45761010080835404028352916020019161051f565b820191906000526020600020905b81548152906001019060200180831161050257829003601f168201915b5050505050905090565b60096020528060005260406000206000915090505481565b60008061054c611189565b9050610559818585611198565b600191505092915050565b6000600254905090565b600080610579611189565b9050610586858285611363565b6105918585856113ef565b60019150509392505050565b60006012905090565b6000806105b1611189565b90506105d28185856105c38589610eb2565b6105cd9190611e1e565b611198565b600191505092915050565b600560006105e9611189565b73ffffffffffffffffffffffffffffffffffffffff1673ffffffffffffffffffffffffffffffffffffffff16815260200190815260200160002060009054906101000a900460ff16610670576040517f08c379a000000000000000000000000000000000000000000000000000000000815260040161066790611ec0565b60405180910390fd5b60005b600182516106819190611ee0565b81101561075e576001600560008484815181106106a1576106a0611f14565b5b602002602001015173ffffffffffffffffffffffffffffffffffffffff1673ffffffffffffffffffffffffffffffffffffffff16815260200190815260200160002060006101000a81548160ff0219169083151502179055507f2dbe9fb88463d989acccabbb6ee06901f83672eb78e04a11ff48dd8f69a27cda82828151811061072e5761072d611f14565b5b60200260200101516040516107439190611f52565b60405180910390a1808061075690611f6d565b915050610673565b5050565b60066020528060005260406000206000915054906101000a900460ff1681565b60056020528060005260406000206000915054906101000a900460ff1681565b60007f000000000000000000000000000000000000000000000000000000000000000073ffffffffffffffffffffffffffffffffffffffff168273ffffffffffffffffffffffffffffffffffffffff16149050919050565b60008060008373ffffffffffffffffffffffffffffffffffffffff1673ffffffffffffffffffffffffffffffffffffffff168152602001908152602001600020549050919050565b6006600061084e611189565b73ffffffffffffffffffffffffffffffffffffffff1673ffffffffffffffffffffffffffffffffffffffff16815260200190815260200160002060009054906101000a900460ff166108d5576040517f08c379a00000000000000000000000000000000000000000000000000000000081526004016108cc90612002565b60405180910390fd5b6001600860006108e3611189565b73ffffffffffffffffffffffffffffffffffffffff1673ffffffffffffffffffffffffffffffffffffffff16815260200190815260200160002060006101000a81548160ff02191690831515021790555061093c611189565b73ffffffffffffffffffffffffffffffffffffffff167fff727524c5e266764538e2adcb7236757ad9016460ff85cbe3cba635759be50160405160405180910390a2565b60606004805461098f90611dbd565b80601f01602080910402602001604051908101604052809291908181526020018280546109bb90611dbd565b8015610a085780601f106109dd57610100808354040283529160200191610a08565b820191906000526020600020905b8154815290600101906020018083116109eb57829003601f168201915b5050505050905090565b600080610a1d611189565b90506000610a2b8286610eb2565b905083811015610a70576040517f08c379a0000000000000000000000000000000000000000000000000000000008152600401610a6790612094565b60405180910390fd5b610a7d8286868403611198565b60019250505092915050565b600080610a94611189565b9050610aa18185856113ef565b600191505092915050565b60056000610ab8611189565b73ffffffffffffffffffffffffffffffffffffffff1673ffffffffffffffffffffffffffffffffffffffff16815260200190815260200160002060009054906101000a900460ff16610b3f576040517f08c379a0000000000000000000000000000000000000000000000000000000008152600401610b3690611ec0565b60405180910390fd5b60005b60018351610b509190611ee0565b811015610ca557600160066000858481518110610b7057610b6f611f14565b5b602002602001015173ffffffffffffffffffffffffffffffffffffffff1673ffffffffffffffffffffffffffffffffffffffff16815260200190815260200160002060006101000a81548160ff021916908315150217905550818181518110610bdc57610bdb611f14565b5b602002602001015160076000858481518110610bfb57610bfa611f14565b5b602002602001015173ffffffffffffffffffffffffffffffffffffffff1673ffffffffffffffffffffffffffffffffffffffff168152602001908152602001600020819055507f33d5070212891a13a09744996fe2be73b077c455cd9ad8453a7dec84495b7d3a838281518110610c7557610c74611f14565b5b6020026020010151604051610c8a9190611f52565b60405180910390a18080610c9d90611f6d565b915050610b42565b505050565b60086020528060005260406000206000915054906101000a900460ff1681565b60056000610cd6611189565b73ffffffffffffffffffffffffffffffffffffffff1673ffffffffffffffffffffffffffffffffffffffff16815260200190815260200160002060009054906101000a900460ff16610d5d576040517f08c379a0000000000000000000000000000000000000000000000000000000008152600401610d5490611ec0565b60405180910390fd5b600860008273ffffffffffffffffffffffffffffffffffffffff1673ffffffffffffffffffffffffffffffffffffffff16815260200190815260200160002060009054906101000a900460ff16610de9576040517f08c379a0000000000000000000000000000000000000000000000000000000008152600401610de090612126565b60405180910390fd5b600760008273ffffffffffffffffffffffffffffffffffffffff1673ffffffffffffffffffffffffffffffffffffffff16815260200190815260200160002054600960008373ffffffffffffffffffffffffffffffffffffffff1673ffffffffffffffffffffffffffffffffffffffff168152602001908152602001600020819055508073ffffffffffffffffffffffffffffffffffffffff167fb7fa0f30e1ede3196616147dfdf6c94e47523298677b4f7b0c61027a9f0ebf5460405160405180910390a250565b6000600160008473ffffffffffffffffffffffffffffffffffffffff1673ffffffffffffffffffffffffffffffffffffffff16815260200190815260200160002060008373ffffffffffffffffffffffffffffffffffffffff1673ffffffffffffffffffffffffffffffffffffffff16815260200190815260200160002054905092915050565b60076020528060005260406000206000915090505481565b600060096000610f5f611189565b73ffffffffffffffffffffffffffffffffffffffff1673ffffffffffffffffffffffffffffffffffffffff1681526020019081526020016000205411610fda576040517f08c379a0000000000000000000000000000000000000000000000000000000008152600401610fd1906121b8565b60405180910390fd5b60006004610fe661059d565b60ff1660096000610ff5611189565b73ffffffffffffffffffffffffffffffffffffffff1673ffffffffffffffffffffffffffffffffffffffff1681526020019081526020016000205461103a91906121d8565b61104491906121d8565b9050600060096000611054611189565b73ffffffffffffffffffffffffffffffffffffffff1673ffffffffffffffffffffffffffffffffffffffff168152602001908152602001600020819055506000600860006110a0611189565b73ffffffffffffffffffffffffffffffffffffffff1673ffffffffffffffffffffffffffffffffffffffff16815260200190815260200160002060006101000a81548160ff0219169083151502179055506111026110fc611189565b82611667565b61110a611189565b73ffffffffffffffffffffffffffffffffffffffff167f27a0c60a1e9c05eb58ba046cefd2991f4e14f87b22349718473dd44a1c5abff960405160405180910390a250565b600061115a336107a2565b1561116e57601436033560601c905061117d565b611176611181565b905061117e565b5b90565b600033905090565b600061119361114f565b905090565b600073ffffffffffffffffffffffffffffffffffffffff168373ffffffffffffffffffffffffffffffffffffffff161415611208576040517f08c379a00000000000000000000000000000000000000000000000000000000081526004016111ff906122a4565b60405180910390fd5b600073ffffffffffffffffffffffffffffffffffffffff168273ffffffffffffffffffffffffffffffffffffffff161415611278576040517f08c379a000000000000000000000000000000000000000000000000000000000815260040161126f90612336565b60405180910390fd5b80600160008573ffffffffffffffffffffffffffffffffffffffff1673ffffffffffffffffffffffffffffffffffffffff16815260200190815260200160002060008473ffffffffffffffffffffffffffffffffffffffff1673ffffffffffffffffffffffffffffffffffffffff168152602001908152602001600020819055508173ffffffffffffffffffffffffffffffffffffffff168373ffffffffffffffffffffffffffffffffffffffff167f8c5be1e5ebec7d5bd14f71427d1e84f3dd0314c0f7b2291e5b200ac8c7c3b92583604051611356919061193b565b60405180910390a3505050565b600061136f8484610eb2565b90507fffffffffffffffffffffffffffffffffffffffffffffffffffffffffffffffff81146113e957818110156113db576040517f08c379a00000000000000000000000000000000000000000000000000000000081526004016113d2906123a2565b60405180910390fd5b6113e88484848403611198565b5b50505050565b600073ffffffffffffffffffffffffffffffffffffffff168373ffffffffffffffffffffffffffffffffffffffff16141561145f576040517f08c379a000000000000000000000000000000000000000000000000000000000815260040161145690612434565b60405180910390fd5b600073ffffffffffffffffffffffffffffffffffffffff168273ffffffffffffffffffffffffffffffffffffffff1614156114cf576040517f08c379a00000000000000000000000000000000000000000000000000000000081526004016114c6906124c6565b60405180910390fd5b6114da8383836117be565b60008060008573ffffffffffffffffffffffffffffffffffffffff1673ffffffffffffffffffffffffffffffffffffffff16815260200190815260200160002054905081811015611560576040517f08c379a000000000000000000000000000000000000000000000000000000000815260040161155790612558565b60405180910390fd5b8181036000808673ffffffffffffffffffffffffffffffffffffffff1673ffffffffffffffffffffffffffffffffffffffff16815260200190815260200160002081905550816000808573ffffffffffffffffffffffffffffffffffffffff1673ffffffffffffffffffffffffffffffffffffffff168152602001908152602001600020600082825401925050819055508273ffffffffffffffffffffffffffffffffffffffff168473ffffffffffffffffffffffffffffffffffffffff167fddf252ad1be2c89b69c2b068fc378daa952ba7f163c4a11628f55a4df523b3ef8460405161164e919061193b565b60405180910390a36116618484846117c3565b50505050565b600073ffffffffffffffffffffffffffffffffffffffff168273ffffffffffffffffffffffffffffffffffffffff1614156116d7576040517f08c379a00000000000000000000000000000000000000000000000000000000081526004016116ce906125c4565b60405180910390fd5b6116e3600083836117be565b80600260008282546116f59190611e1e565b92505081905550806000808473ffffffffffffffffffffffffffffffffffffffff1673ffffffffffffffffffffffffffffffffffffffff168152602001908152602001600020600082825401925050819055508173ffffffffffffffffffffffffffffffffffffffff16600073ffffffffffffffffffffffffffffffffffffffff167fddf252ad1be2c89b69c2b068fc378daa952ba7f163c4a11628f55a4df523b3ef836040516117a6919061193b565b60405180910390a36117ba600083836117c3565b5050565b505050565b505050565b600081519050919050565b600082825260208201905092915050565b60005b838110156118025780820151818401526020810190506117e7565b83811115611811576000848401525b50505050565b6000601f19601f8301169050919050565b6000611833826117c8565b61183d81856117d3565b935061184d8185602086016117e4565b61185681611817565b840191505092915050565b6000602082019050818103600083015261187b8184611828565b905092915050565b6000604051905090565b600080fd5b600080fd5b600073ffffffffffffffffffffffffffffffffffffffff82169050919050565b60006118c282611897565b9050919050565b6118d2816118b7565b81146118dd57600080fd5b50565b6000813590506118ef816118c9565b92915050565b60006020828403121561190b5761190a61188d565b5b6000611919848285016118e0565b91505092915050565b6000819050919050565b61193581611922565b82525050565b6000602082019050611950600083018461192c565b92915050565b61195f81611922565b811461196a57600080fd5b50565b60008135905061197c81611956565b92915050565b600080604083850312156119995761199861188d565b5b60006119a7858286016118e0565b92505060206119b88582860161196d565b9150509250929050565b60008115159050919050565b6119d7816119c2565b82525050565b60006020820190506119f260008301846119ce565b92915050565b600080600060608486031215611a1157611a1061188d565b5b6000611a1f868287016118e0565b9350506020611a30868287016118e0565b9250506040611a418682870161196d565b9150509250925092565b600060ff82169050919050565b611a6181611a4b565b82525050565b6000602082019050611a7c6000830184611a58565b92915050565b600080fd5b7f4e487b7100000000000000000000000000000000000000000000000000000000600052604160045260246000fd5b611abf82611817565b810181811067ffffffffffffffff82111715611ade57611add611a87565b5b80604052505050565b6000611af1611883565b9050611afd8282611ab6565b919050565b600067ffffffffffffffff821115611b1d57611b1c611a87565b5b602082029050602081019050919050565b600080fd5b6000611b46611b4184611b02565b611ae7565b90508083825260208201905060208402830185811115611b6957611b68611b2e565b5b835b81811015611b925780611b7e88826118e0565b845260208401935050602081019050611b6b565b5050509392505050565b600082601f830112611bb157611bb0611a82565b5b8135611bc1848260208601611b33565b91505092915050565b600060208284031215611be057611bdf61188d565b5b600082013567ffffffffffffffff811115611bfe57611bfd611892565b5b611c0a84828501611b9c565b91505092915050565b600067ffffffffffffffff821115611c2e57611c2d611a87565b5b602082029050602081019050919050565b6000611c52611c4d84611c13565b611ae7565b90508083825260208201905060208402830185811115611c7557611c74611b2e565b5b835b81811015611c9e5780611c8a888261196d565b845260208401935050602081019050611c77565b5050509392505050565b600082601f830112611cbd57611cbc611a82565b5b8135611ccd848260208601611c3f565b91505092915050565b60008060408385031215611ced57611cec61188d565b5b600083013567ffffffffffffffff811115611d0b57611d0a611892565b5b611d1785828601611b9c565b925050602083013567ffffffffffffffff811115611d3857611d37611892565b5b611d4485828601611ca8565b9150509250929050565b60008060408385031215611d6557611d6461188d565b5b6000611d73858286016118e0565b9250506020611d84858286016118e0565b9150509250929050565b7f4e487b7100000000000000000000000000000000000000000000000000000000600052602260045260246000fd5b60006002820490506001821680611dd557607f821691505b60208210811415611de957611de8611d8e565b5b50919050565b7f4e487b7100000000000000000000000000000000000000000000000000000000600052601160045260246000fd5b6000611e2982611922565b9150611e3483611922565b9250827fffffffffffffffffffffffffffffffffffffffffffffffffffffffffffffffff03821115611e6957611e68611def565b5b828201905092915050565b7f436c696d617465436f696e3a3a204e6f7420616e2041646d696e000000000000600082015250565b6000611eaa601a836117d3565b9150611eb582611e74565b602082019050919050565b60006020820190508181036000830152611ed981611e9d565b9050919050565b6000611eeb82611922565b9150611ef683611922565b925082821015611f0957611f08611def565b5b828203905092915050565b7f4e487b7100000000000000000000000000000000000000000000000000000000600052603260045260246000fd5b611f4c816118b7565b82525050565b6000602082019050611f676000830184611f43565b92915050565b6000611f7882611922565b91507fffffffffffffffffffffffffffffffffffffffffffffffffffffffffffffffff821415611fab57611faa611def565b5b600182019050919050565b7f436c696d617465436f696e3a3a204e6f742061204661726d6572000000000000600082015250565b6000611fec601a836117d3565b9150611ff782611fb6565b602082019050919050565b6000602082019050818103600083015261201b81611fdf565b9050919050565b7f45524332303a2064656372656173656420616c6c6f77616e63652062656c6f7760008201527f207a65726f000000000000000000000000000000000000000000000000000000602082015250565b600061207e6025836117d3565b915061208982612022565b604082019050919050565b600060208201905081810360008301526120ad81612071565b9050919050565b7f436c696d617465436f696e3a3a204e6f20636c61696d7320666f72204661726d60008201527f6572000000000000000000000000000000000000000000000000000000000000602082015250565b60006121106022836117d3565b915061211b826120b4565b604082019050919050565b6000602082019050818103600083015261213f81612103565b9050919050565b7f436c696d617465436f696e3a3a204e6f207265776172647320666f722066617260008201527f6d65720000000000000000000000000000000000000000000000000000000000602082015250565b60006121a26023836117d3565b91506121ad82612146565b604082019050919050565b600060208201905081810360008301526121d181612195565b9050919050565b60006121e382611922565b91506121ee83611922565b9250817fffffffffffffffffffffffffffffffffffffffffffffffffffffffffffffffff048311821515161561222757612226611def565b5b828202905092915050565b7f45524332303a20617070726f76652066726f6d20746865207a65726f2061646460008201527f7265737300000000000000000000000000000000000000000000000000000000602082015250565b600061228e6024836117d3565b915061229982612232565b604082019050919050565b600060208201905081810360008301526122bd81612281565b9050919050565b7f45524332303a20617070726f766520746f20746865207a65726f20616464726560008201527f7373000000000000000000000000000000000000000000000000000000000000602082015250565b60006123206022836117d3565b915061232b826122c4565b604082019050919050565b6000602082019050818103600083015261234f81612313565b9050919050565b7f45524332303a20696e73756666696369656e7420616c6c6f77616e6365000000600082015250565b600061238c601d836117d3565b915061239782612356565b602082019050919050565b600060208201905081810360008301526123bb8161237f565b9050919050565b7f45524332303a207472616e736665722066726f6d20746865207a65726f20616460008201527f6472657373000000000000000000000000000000000000000000000000000000602082015250565b600061241e6025836117d3565b9150612429826123c2565b604082019050919050565b6000602082019050818103600083015261244d81612411565b9050919050565b7f45524332303a207472616e7366657220746f20746865207a65726f206164647260008201527f6573730000000000000000000000000000000000000000000000000000000000602082015250565b60006124b06023836117d3565b91506124bb82612454565b604082019050919050565b600060208201905081810360008301526124df816124a3565b9050919050565b7f45524332303a207472616e7366657220616d6f756e742065786365656473206260008201527f616c616e63650000000000000000000000000000000000000000000000000000602082015250565b60006125426026836117d3565b915061254d826124e6565b604082019050919050565b6000602082019050818103600083015261257181612535565b9050919050565b7f45524332303a206d696e7420746f20746865207a65726f206164647265737300600082015250565b60006125ae601f836117d3565b91506125b982612578565b602082019050919050565b600060208201905081810360008301526125dd816125a1565b905091905056fea2646970667358221220b22e66be6ef0e349c28eb11db7646007afaf4c0fb83819779dddd167826e756164736f6c63430008090033",
  "linkReferences": {},
  "deployedLinkReferences": {}
}